:100000000C9470000C9498000C9498000C94980038
:100010000C9498000C9498000C9498000C94980000
:100020000C9498000C9498000C9498000C949800F0
:100030000C9498000C9498000C9498000C949800E0
:100040000C9468040C9498000C9436040C941004DE
:100050000C9498000C9498000C9498000C949800C0
:100060000C94B2040C949800084AD73B3BCE016E26
:1000700084BCBFFDC12F3D6C74319ABD56833DDAFF
:100080003D00C77F11BED9E4BB4C3E916BAAAABE0E
:10009000000000803F0000000000250028002B0029
:1000A000040404040404040402020202020203031E
:1000B0000303030301020408102040800102040826
:1000C00010200102040810200000000800020100B6
:1000D000000304070000000000000000780A700A16
:1000E00011241FBECFEFD8E0DEBFCDBF22E0A8E5D0
:1000F000B1E001C01D92AB3EB207E1F711E0A0E014
:10010000B1E0EAECF5E202C005900D92A835B10726
:10011000D9F710E0CFE6D0E004C02197FE010E949D
:10012000250ECE36D107C9F70E94A1060C94D8122D
:100130000C94000008958091CA0190E02091C901BB
:10014000821B91090895CF92DF92EF92FF920F9355
:100150001F93CF93DF936C017A018B01C0E0D0E055
:10016000CE15DF0589F0D8016D918D01D601ED9195
:10017000FC910190F081E02DC6010995892B11F4C5
:100180007E0102C02196ECCFC701DF91CF911F9174
:100190000F91FF90EF90DF90CF900895FC01538D69
:1001A000448D252F30E0842F90E0821B930B541751
:1001B00010F0CF96089501970895FC01918D828DDE
:1001C000981761F0828DDF01A80FB11D5D968C91AB
:1001D000928D9F5F9F73928F90E008958FEF9FEFB6
:1001E0000895FC01918D828D981731F0828DE80F72
:1001F000F11D858D90E008958FEF9FEF0895FC012C
:10020000918D228D892F90E0805C9F4F821B9109F8
:100210008F739927089586E292E00E94FF0021E003
:10022000892B09F420E0822F0895FC01848DDF01E1
:10023000A80FB11DA35ABF4F2C91848D90E0019659
:100240008F739927848FA689B7892C93A089B18948
:100250008C9180648C93938D848D981306C0028852
:10026000F389E02D80818F7D80830895EF92FF9246
:100270000F931F93CF93DF93EC0181E0888F9B8DC9
:100280008C8D981305C0E889F989808185FD24C08B
:10029000F62E0B8D10E00F5F1F4F0F731127E02E0E
:1002A0008C8DE8120CC00FB607FCFACFE889F989EB
:1002B000808185FFF5CFCE010E941501F1CF8B8D96
:1002C000FE01E80FF11DE35AFF4FF0820B8FEA8920
:1002D000FB898081806207C0EE89FF896083E8899D
:1002E000F98980818064808381E090E0DF91CF9103
:1002F0001F910F91FF90EF900895CF93DF93EC0142
:10030000888D8823C9F0EA89FB89808185FD05C035
:10031000A889B9898C9186FD0FC00FB607FCF5CF6F
:10032000808185FFF2CFA889B9898C9185FFEDCFB7
:10033000CE010E941501E7CFDF91CF91089580E0B3
:1003400090E0892B29F00E940B0181110C94000090
:1003500008953FB7F8948091A4019091A501A091D0
:10036000A601B091A70126B5A89B05C02F3F19F0A3
:100370000196A11DB11D3FBFBA2FA92F982F882725
:10038000820F911DA11DB11DBC01CD0142E0660F80
:10039000771F881F991F4A95D1F708958F929F92D2
:1003A000AF92BF92CF92DF92EF92FF926B017C01EE
:1003B0000E94A9014B015C01C114D104E104F104C4
:1003C000F1F00E94A901DC01CB0188199909AA0961
:1003D000BB09883E9340A105B10570F321E0C21A24
:1003E000D108E108F10888EE880E83E0981EA11C70
:1003F000B11CC114D104E104F10419F7DDCFFF9061
:10040000EF90DF90CF90BF90AF909F908F90089526
:1004100085ED8093BC008091BC0084FDFCCF1092E0
:100420000102089540917A01262F30E0240F311DFA
:1004300021323105DCF4209101022430C9F4FC01A1
:1004400080E090E0861758F430917A012191DC0128
:10045000A85ABE4FA30FB11D2C930196F3CF8091E4
:100460007A01680F60937A0180E0089581E0089531
:1004700082E008950895E091C9018091CA01E817CA
:1004800030F4F0E0E755FE4F808190E008958FEF63
:100490009FEF08959091C9018091CA01981750F477
:1004A000E92FF0E0E755FE4F208130E09F5F909309
:1004B000C90102C02FEF3FEFC9010895CF92DF922B
:1004C000EF92FF920F931F93CF93DF937C01262F20
:1004D000972F8A0180910202882391F0C62FD72F8F
:1004E0006E01C40ED51ECC15DD0571F06991D701E2
:1004F000ED91FC910190F081E02DC7010995F3CFBA
:10050000642F822F0E941202C801DF91CF911F91A8
:100510000F91FF90EF90DF90CF900895CF93DF93EE
:100520001F92CDB7DEB76983209102022223D1F05A
:1005300020912502203240F021E030E0FC0133839D
:10054000228380E090E015C080910302E82FF0E064
:10055000EC5FFD4F998190838F5F809303028093BE
:10056000250205C061E0CE0101960E94120281E0E1
:1005700090E00F90DF91CF910895089580E090E092
:100580000895CF93DF93EC0188819981009711F052
:100590000E94C00E198218821D821C821B821A8240
:1005A000DF91CF910895FC01808191810C94C00E60
:1005B000FC01848191E090930202809324021092C6
:1005C0000302109225028385862B90E00E94E005AD
:1005D00081E00C94E5050F931F93CF938C01C62FF8
:1005E0000E94D8026C2F6460C8010E94D8026C2F50
:1005F0006B7FC8010E94D80283EC90E00197F1F76D
:10060000CF911F910F910895FF920F931F93CF9356
:10061000DF931F92CDB7DEB78C01F62E962F907F19
:10062000692F642BC80149830E94EB0280E1F89E88
:10063000B00111244981642BC8010F90DF91CF9143
:100640001F910F91FF900C94EB0241E00E94040374
:1006500081E090E008950E9422100F931F93CF93A2
:10066000DF93EC0188819981009729F02A813B81F1
:100670002617370788F48B016F5F7F4F0E94580F52
:10068000009761F0998388831B830A832C813D81C5
:10069000232B11F4FC01108281E001C080E0DF9186
:1006A000CF911F910F910895EF92FF920F931F9397
:1006B000CF93DF93EC01FB0184819581E080F18091
:1006C0000C811D81E114F104B1F00097B9F0080F1D
:1006D000191FB801CE010E942D03882361F02881E3
:1006E00039818C819D81B701820F931F0E94301048
:1006F0001D830C8303C0CE010E94C102CE01DF9195
:10070000CF911F910F91FF90EF900895EF92FF927C
:100710000F931F93CF93DF93EC017B018A01BA0102
:100720000E942D03811104C0CE010E94C10207C0A6
:100730001D830C83B701888199810E943010CE01FE
:10074000DF91CF911F910F91FF90EF900895EF925D
:10075000FF920F931F93CF93DF93CDB7DEB76297CE
:100760000FB6F894DEBF0FBECDBF8C01CB01F801F0
:1007700011821082138212821582148250E09E012F
:100780002F5F3F4F7901B9010E94CB0AF701019019
:100790000020E9F73197AF014E195F09B701C80191
:1007A0000E94860362960FB6F894DEBF0FBECDBFDF
:1007B000DF91CF911F910F91FF90EF9008951092CC
:1007C000010281E0809300021092DB0182E10E942D
:1007D000420683E10E944206E9EBF0E080818E7FD1
:1007E000808380818D7F808388E48093B80085E456
:1007F0008093BC000895FC01118210821382128242
:10080000158214826115710551F0FB0101900020E1
:10081000E9F73197AF01461B570B0C9486030895F7
:100820001F920F920FB60F9211242F933F934F9365
:100830005F936F937F938F939F93AF93BF93EF9348
:10084000FF9386E292E00E941501FF91EF91BF9124
:10085000AF919F918F917F916F915F914F913F9158
:100860002F910F900FBE0F901F9018951F920F920F
:100870000FB60F9211242F938F939F93EF93FF93B3
:10088000E0913602F09137028081E0913C02F091D4
:100890003D0282FD12C0908180913F028F5F8F7375
:1008A00020914002821751F0E0913F02F0E0EA5DB2
:1008B000FD4F958F80933F0201C08081FF91EF91A2
:1008C0009F918F912F910F900FBE0F901F901895B1
:1008D0001F920F920FB60F9211242F933F938F9375
:1008E0009F93AF93BF938091A0019091A101A0919C
:1008F000A201B091A30130919F0123E0230F2D3776
:1009000020F40196A11DB11D05C026E8230F029613
:10091000A11DB11D20939F018093A0019093A1017F
:10092000A093A201B093A3018091A4019091A5018D
:10093000A091A601B091A7010196A11DB11D8093C0
:10094000A4019093A501A093A601B093A701BF9124
:10095000AF919F918F913F912F910F900FBE0F906C
:100960001F9018951F920F920FB60F9211242F937C
:100970003F934F935F936F937F938F939F93AF9327
:10098000BF93EF93FF938091B900887F803609F47D
:100990009CC068F5883209F45BC090F4803109F49A
:1009A00054C038F4882309F4F6C0883009F44DC0E7
:1009B000F6C0883109F44CC0803209F45DC0EFC044
:1009C000803409F468C048F4803309F455C0883392
:1009D00009F0E5C08093FF01D8C0803509F44FC00D
:1009E000883509F45DC0883409F0D9C0D6C088398B
:1009F00009F4C7C0A8F4883709F467C038F488360A
:100A000009F463C0803709F460C0C9C0883809F4AC
:100A1000B8C0803909F45FC0803809F0C0C05BC03D
:100A2000803B09F486C038F4803A09F466C0883AFD
:100A300009F47FC0B4C0803C09F4A7C0883C09F425
:100A4000A4C0883B09F48AC0AAC08091DC0110C010
:100A50009091FE018091FD01981770F5E091FE01E3
:100A600081E08E0F8093FE01F0E0E352FE4F808123
:100A70008093BB0085EC86C08093FF018EC0E0911F
:100A8000FE0181E08E0F8093FE018091BB00F0E0BB
:100A9000E352FE4F80839091FE018091FD016EC074
:100AA000E091FE0181E08E0F8093FE018091BB00FA
:100AB000F0E0E352FE4F80838091000281116DC00F
:100AC00081E08093DB0184EA61C083E080930102CE
:100AD00010929E01CFCF80919E01803208F051C0CC
:100AE000E0919E0181E08E0F80939E018091BB007A
:100AF000F0E0E258FE4F8083BDCF85EC8093BC00D0
:100B00001092010280919E01803230F4E0919E01AA
:100B1000F0E0E258FE4F108260919E0170E0E0919B
:100B20007C01F0917D018EE791E0099510929E0184
:100B300036C084E08093010210927B0110927A010A
:100B4000E0917801F0917901099580917A01811104
:100B500005C081E080937A0110925801E0917B01F9
:100B600081E08E0F80937B01F0E0E85AFE4F808198
:100B70008093BB0090917B0180917A01981708F4D3
:100B800079CF85E88093BC000AC085EC8093BC00D7
:100B90001092010204C01092FF010E940802FF910E
:100BA000EF91BF91AF919F918F917F916F915F91E5
:100BB0004F913F912F910F900FBE0F901F9018955E
:100BC000682F83EC92E00C948E02382F209125023E
:100BD00090912402213208F049C0809101028111D4
:100BE000FCCF42E040930102309300023FEF30938C
:100BF000FF011092FE012093FD01A4E0B2E04DED53
:100C000051E0FA013E2F341B321718F43D91319315
:100C1000F9CF1092DC012091DC01990F922B909377
:100C2000DC019091DB01913061F41092DB01909135
:100C3000DC019093BB009091BC0093FDF8CF95EC44
:100C400001C095EE9093BC00909101029230E1F3C7
:100C50009091FF019F3F79F08091FF01803241F038
:100C60008091FF01803331F084E005C081E003C052
:100C700082E001C083E010920302109225021092DC
:100C80000202089590E0FC01E853FF4F2491FC011B
:100C9000EC54FF4F3491FC01E056FF4FE491EE23FA
:100CA000B1F1222339F1233091F038F42130A9F049
:100CB000223001F584B58F7D12C0273091F02830A5
:100CC000A1F02430B9F4809180008F7D03C0809121
:100CD00080008F77809380000DC084B58F7784BDAE
:100CE00009C08091B0008F7703C08091B0008F7DE4
:100CF0008093B000F0E0EE0FFF1FEA56FF4FA59182
:100D0000B4918FB7F894EC913E2B3C938FBF08952C
:100D1000CF93DF93FC01448155816081718186E22C
:100D200092E00E94A300EC0142E050E064E571E033
:100D300086E292E00E94A3008C0F9D1FDF91CF916D
:100D40000895CF93DF93CDB7DEB7C058D1090FB662
:100D5000F894DEBF0FBECDBF789484B5826084BDA9
:100D600084B5816084BD85B5826085BD85B58160AF
:100D700085BD80916E00816080936E00109281002D
:100D800080918100826080938100809181008160E8
:100D900080938100809180008160809380008091A9
:100DA000B10084608093B1008091B0008160809335
:100DB000B00080917A00846080937A0080917A00FC
:100DC000826080937A0080917A00816080937A00BB
:100DD00080917A00806880937A001092C100E0913F
:100DE0003602F091370282E08083E0913202F09186
:100DF00033021082E0913402F09135028FEC80834F
:100E000010923E02E0913A02F0913B0286E080832C
:100E1000E0913802F0913902808180618083E09115
:100E20003802F0913902808188608083E091380235
:100E3000F0913902808180688083E0913802F091DE
:100E4000390280818F7D808366E571E08E010F5FBE
:100E50001F4FC8010E94FB031092C9011092CA01E2
:100E600010920302109225020E94DF03FF24F394E4
:100E7000F09202028EE180932402109203021092FB
:100E8000250282E090E00E94E00580E090E00E9470
:100E9000E00581E00E94E505811102C0F092A80101
:100EA000C8010E94D30210920302109225020E94F0
:100EB000DF031092E0028091E502823018F098E0A2
:100EC0009093E0028093E30262E370E080E090E0C0
:100ED0000E94CE016091E6028BED92E00E94D80262
:100EE00068EE73E080E090E00E94CE0160E38BED5D
:100EF00092E00E94EB028BE4E82E86E4F82EC70114
:100F00000197F1F760E38BED92E00E94EB02C701DD
:100F10000197F1F760E38BED92E00E94EB0283E52D
:100F200092E00197F1F760E28BED92E00E94EB0214
:100F30006091E002606240E08BED92E00E94040369
:100F400084E08093E10240E06CE08BED92E00E944F
:100F5000040340E061E08BED92E00E9404039BE318
:100F6000E92E9FE1F92EC7010197F1F782E0809306
:100F7000E20240E066E08BED92E00E94040340E074
:100F800062E08BED92E00E940403C7010197F1F744
:100F900088E08093E60260E08BED92E00E94D80248
:100FA0008091D9019091DA019093D8018093D70173
:100FB0008091D5019091D6019093D4018093D30173
:100FC0008091D1019091D2019093D0018093CF0173
:100FD0008091CD019091CE019093CC018093CB0173
:100FE00081E0809302028EE180932402109203023A
:100FF0001092250283E090E00E94E00581E00E94CB
:10100000E505809101028111FCCF81E0809301020E
:10101000809300029FEF9093FF011092FE0195E0F4
:101020009093FD018093DC018091DC018C638093BF
:10103000DC018091DB01813061F41092DB01809151
:10104000DC018093BB008091BC0083FDF8CF85EC70
:1010500001C085EE8093BC00809101028130E1F3F4
:101060008091FE01863018F48091FE0101C086E077
:10107000ADEDB1E0E9EAF1E09E2F29EA31E0921B03
:10108000981718F49D919193F7CF1092C90180930E
:10109000CA01863090F183EC92E00E944A02ED96FC
:1010A0008FAFED97EC961FAEEC9783EC92E00E9429
:1010B0004A02ED96CEACDFACED97C82AD92A83EC74
:1010C00092E00E944A02382E212C83EC92E00E948A
:1010D0004A0282299329EE24FF24E81AF90A83ECB4
:1010E00092E00E944A02982E812C83EC92E00E94AA
:1010F0004A025401A82AB92A06C0E12CF12CA12CDD
:10110000B12CC12CD12CD092D601C092D501B09275
:10111000D201A092D101F092CE01E092CD01B601B0
:101120000D2C000C880B990B0E94120B9B01AC013B
:10113000B5010B2C000C880B990BEE962FAFEE9798
:10114000EF963FAFEF97C158DF4F4883CF57D0405E
:10115000C058DF4F5883C058D0400E94120BEE9603
:101160002FADEE97EF963FADEF97C158DF4F488117
:10117000CF57D040C058DF4F5881C058D0400E9450
:10118000E60C2EEA37E441E65EE30E94670C2B0191
:101190003C0120E030E0A9010E940B0B87FF0AC050
:1011A0002BED3FE049EC50E4C301B2010E94670C13
:1011B0002B013C012BED3FE049EC50E4C301B201AF
:1011C0000E94140E181654F42BED3FE049EC50E445
:1011D000C301B2010E94660C2B013C0120E030E00B
:1011E00044E353E4C301B2010E94710B2BED3FE0D5
:1011F00049E450E40E94450D0E94B70D6093D90167
:101200007093DA01FF92EF92BF92AF92DF92CF928A
:101210007F936F938EE391E09F938F931F930F9330
:101220000E943710B801CE018F5A9F4F0E94FB03D6
:101230008091D5029091D6020FB6F894DEBF0FBE12
:10124000CDBF0097F9F063966EAD7FAD63976115E2
:101250007105B1F04091D7025091D80267962EAD3A
:101260003FAD67974217530758F00E9430106796BA
:101270008EAD9FAD67979093DA028093D90222C01A
:101280000E94C00E63968EAD9FAD63979093D60279
:101290008093D50265968EAD9FAD65979093D802E9
:1012A0008093D70267968EAD9FAD67979093DA02D1
:1012B0008093D90263961FAE1EAE639765961FAEEC
:1012C0001EAE659767961FAE1EAE6797CE018F5A0A
:1012D0009F4F0E94D3026091CB017091CC014AE0F4
:1012E000C8010E94A70362E571E0CE018F5A9F4FAB
:1012F0000E94FB036091CF017091D0014AE0CE01C2
:10130000895A9F4F0E94A70362E571E0CE01835A7C
:101310009F4F0E94FB036091D3017091D4014AE07A
:10132000CE018D599F4F0E94A70362E571E0CE0167
:1013300087599F4F0E94FB036091D7017091D8019C
:101340004AE0CE018B589F4F0E94A703E1961FAE43
:101350001EAEE197E3961FAE1EAEE397E5961FAE75
:101360001EAEE597E7966EAD7FADE7976115710507
:1013700051F0EB964EAD5FADEB97CE0181599F4F8B
:101380000E94860305C0CE0181599F4F0E94C10271
:10139000BE0167597F4FCE0181599F4F0E94540370
:1013A000BE016D597F4F0E945403BE01635A7F4FA7
:1013B0000E945403BE01695A7F4F0E945403BE012C
:1013C0006F5A7F4F0E945403B8010E945403F2E009
:1013D0008F3C9F0789F0FC01608171816115710567
:1013E00039F0448155818FEC92E00E94860304C05D
:1013F0008FEC92E00E94C102CE0181599F4F0E9462
:10140000D302CE018B589F4F0E94D302CE01875941
:101410009F4F0E94D302CE018D599F4F0E94D3024D
:10142000CE01835A9F4F0E94D302CE01895A9F4F0B
:101430000E94D302CE018F5A9F4F0E94D302C8014F
:101440000E94D30285ED92E00E9488068FEC92E024
:101450000E94880640E061E08BED92E00E94040368
:101460008BE39FE10197F1F74091D9025091DA02A5
:101470006091D5027091D6028BED92E00E94A3009C
:1014800088E0E6E0F1E0D80101900D928A95E1F75D
:101490008091E302811102C08FEF01C081E0F80169
:1014A000E80FF11DE80FF11D6081606840E08BEDF1
:1014B00092E00E9404034091D3025091D4026091C3
:1014C000CF027091D0028BED92E00E94A30064E6FF
:1014D00070E080E090E00E94CE010E949F0160CD0C
:1014E0008FEC92E00E94D30285ED92E00C94D3023F
:1014F000E6E2F2E01382128288EE93E0A0E0B0E030
:1015000084839583A683B78322E131E031832083EE
:1015100025EC30E03587248724EC30E037872687B8
:1015200020EC30E0318B208B21EC30E0338B228BB0
:1015300022EC30E0358B248B26EC30E0378B268B89
:10154000118E128E138E148EE3ECF2E0138212824F
:1015500084839583A683B78384E291E0918380831B
:10156000EBEDF2E01382128286E391E091838083B7
:1015700087E2848380E1818782E08287138666E543
:1015800071E085ED92E00E94FB0366E571E08FEC6F
:1015900092E00C94FB034532510520F4423010F0E8
:1015A0000C94D60AFB011082CB010895BB274A3068
:1015B00031F4992322F4BDE2909581959F4F0C94CC
:1015C000E20ABB27FB015527AA27880F991FAA1FEC
:1015D000A41710F0A41B83955051B9F7A05DAA334E
:1015E00008F0A95DA193009779F7B111B193119219
:1015F000CB010C94FB0ADC01FC01672F719177236E
:10160000E1F7329704C07C916D9370836291AE17BD
:10161000BF07C8F308950E944D0B08F481E00895B8
:10162000E89409C097FB3EF490958095709561957C
:101630007F4F8F4F9F4F9923A9F0F92F96E9BB2732
:101640009395F695879577956795B795F111F8CFAE
:10165000FAF4BB0F11F460FF1BC06F5F7F4F8F4F19
:101660009F4F16C0882311F096E911C0772321F00F
:101670009EE8872F762F05C0662371F096E8862FA7
:1016800070E060E02AF09A95660F771F881FDAF7FE
:10169000880F9695879597F90895990F0008550F2B
:1016A000AA0BE0E8FEEF16161706E807F907C0F0E8
:1016B00012161306E407F50798F0621B730B840BF0
:1016C000950B39F40A2661F0232B242B252B21F4CA
:1016D00008950A2609F4A140A6958FEF811D811D6A
:1016E00008950E94840B0C94F50B0E94E70B38F0D0
:1016F0000E94EE0B20F0952311F00C94DE0B0C945D
:10170000E40B11240C94290C0E94060C70F3959F95
:10171000C1F3950F50E0551F629FF001729FBB27E8
:10172000F00DB11D639FAA27F00DB11DAA1F649F84
:101730006627B00DA11D661F829F2227B00DA11D37
:10174000621F739FB00DA11D621F839FA00D611DBD
:10175000221F749F3327A00D611D231F849F600DDE
:10176000211D822F762F6A2F11249F5750409AF007
:10177000F1F088234AF0EE0FFF1FBB1F661F771F93
:10178000881F91505040A9F79E3F510580F00C945E
:10179000DE0B0C94290C5F3FE4F3983ED4F386955E
:1017A00077956795B795F795E7959F5FC1F7FE2BFE
:1017B000880F911D9695879597F9089597F99F67DA
:1017C00080E870E060E008959FEF80EC08950024C9
:1017D0000A941616170618060906089500240A9496
:1017E00012161306140605060895092E0394000C1C
:1017F00011F4882352F0BB0F40F4BF2B11F460FFAB
:1018000004C06F5F7F4F8F4F9F4F089557FD9058D3
:10181000440F551F59F05F3F71F04795880F97FBB4
:10182000991F61F09F3F79F087950895121613066E
:101830001406551FF2CF4695F1DF08C0161617069D
:101840001806991FF1CF86957105610508940895D2
:10185000E894BB2766277727CB0197F908952F9245
:101860003F924F925F926F927F928F929F92AF9230
:10187000BF92CF92DF92EF92FF920F931F93CF937D
:10188000DF93CDB7DEB7CA1BDB0B0FB6F894DEBF14
:101890000FBECDBF09942A88398848885F846E843A
:1018A0007D848C849B84AA84B984C884DF80EE8084
:1018B000FD800C811B81AA81B981CE0FD11D0FB68D
:1018C000F894DEBF0FBECDBFED0108955058BB2781
:1018D000AA270E947E0C0C94F50B0E94E70B38F0AF
:1018E0000E94EE0B20F039F49F3F19F426F40C947B
:1018F000E40B0EF4E095E7FB0C94DE0BE92F0E945D
:10190000060C58F3BA17620773078407950720F08F
:1019100079F4A6F50C94280C0EF4E0950B2EBA2F52
:10192000A02D0B01B90190010C01CA01A0011124E5
:10193000FF27591B99F0593F50F4503E68F11A1691
:10194000F040A22F232F342F4427585FF3CF469522
:1019500037952795A795F0405395C9F77EF41F1644
:10196000BA0B620B730B840BBAF09150A1F0FF0F0E
:10197000BB1F661F771F881FC2F70EC0BA0F621FFA
:10198000731F841F48F4879577956795B795F795EA
:101990009E3F08F0B0CF9395880F08F09927EE0F7F
:1019A0009795879508950E94E70B60F080E891E095
:1019B00009F49EEF0E94EE0B28F040E851E071F42C
:1019C0005EEF0CC00C94E40B0C94280CE92FE0782B
:1019D0000E94060C40F3092E052AB1F3261737079B
:1019E0004807590738F00E2E07F8E02569F0E02582
:1019F000E0640AC0EF6307F8009407FADB01B9015D
:101A00009D01DC01CA01AD01EF930E945C0D0E94B3
:101A1000F50B0E94160D5F91552339F02BED3FE039
:101A200049E450FD49EC0C94670C0895DF93DD27E1
:101A3000B92FBF7740E85FE31616170648075B0724
:101A400018F4D92F0E94190E9F938F937F936F9351
:101A50000E94210EE8E6F0E00E94ED0D0E94F50BD9
:101A60002F913F914F915F910E94840BDD2351F0A4
:101A70009058A2EA2AED3FE049EC5FE3D0785D2779
:101A80000E947E0CDF910C94F50B0E94590D0C9472
:101A9000F50B0E94EE0B58F00E94E70B40F029F482
:101AA0005F3F29F00C94DE0B51110C94290C0C941F
:101AB000E40B0E94060C68F39923B1F3552391F3CC
:101AC000951B550BBB27AA2762177307840738F0AD
:101AD0009F5F5F4F220F331F441FAA1FA9F335D00A
:101AE0000E2E3AF0E0E832D091505040E695001CBE
:101AF000CAF72BD0FE2F29D0660F771F881FBB1F78
:101B0000261737074807AB07B0E809F0BB0B802D55
:101B1000BF01FF2793585F4F3AF09E3F510578F081
:101B20000C94DE0B0C94290C5F3FE4F3983ED4F345
:101B3000869577956795B795F7959F5FC9F7880F55
:101B4000911D9695879597F90895E1E0660F771FA7
:101B5000881FBB1F621773078407BA0720F0621B38
:101B6000730B840BBA0BEE1F88F7E09508950E9463
:101B7000BE0D6894B1110C94290C08950E940E0CAE
:101B800088F09F5798F0B92F9927B751B0F0E1F03E
:101B9000660F771F881F991F1AF0BA95C9F714C0EE
:101BA000B13091F00E94280CB1E008950C94280CFB
:101BB000672F782F8827B85F39F0B93FCCF3869527
:101BC00077956795B395D9F73EF490958095709584
:101BD00061957F4F8F4F9F4F0895DF93CF931F9352
:101BE0000F93FF92EF92DF927B018C01689406C005
:101BF000DA2EEF010E94840BFE01E894A591259155
:101C0000359145915591A6F3EF010E947E0CFE019E
:101C10009701A801DA9469F7DF90EF90FF900F9198
:101C20001F91CF91DF9108950E944D0B08F48FEF23
:101C300008959B01AC0160E070E080E89FE30C94A4
:101C4000450D9B01AC010C94710BEE0FFF1F05902D
:101C5000F491E02D0994CF93DF938230910510F435
:101C600082E090E0E091E902F091EA0220E030E0C9
:101C7000C0E0D0E0309711F14081518148175907F9
:101C8000C0F04817590761F482819381209719F0B9
:101C90009B838A832BC09093EA028093E90226C03B
:101CA0002115310519F04217530718F49A01BE01A6
:101CB000DF01EF010280F381E02DDCCF211531053A
:101CC00009F1281B390B2430310590F412968D91BF
:101CD0009C9113976115710521F0FB019383828319
:101CE00004C09093EA028093E902FD01329644C059
:101CF000FD01E20FF31F81939193225031092D933F
:101D00003C933AC02091E7023091E802232B41F442
:101D100020910201309103013093E8022093E70201
:101D200020910001309101012115310541F42DB7B9
:101D30003EB74091040150910501241B350BE09101
:101D4000E702F091E802E217F307A0F42E1B3F0B25
:101D50002817390778F0AC014E5F5F4F241735071D
:101D600048F04E0F5F1F5093E8024093E7028193C3
:101D7000919302C0E0E0F0E0CF01DF91CF910895B0
:101D80000F931F93CF93DF93009709F48CC0FC014E
:101D90003297138212820091E9021091EA02011532
:101DA000110581F420813181820F931F2091E70278
:101DB0003091E8022817390779F5F093E802E093AB
:101DC000E70271C0D80140E050E0AE17BF0750F401
:101DD00012962D913C911397AD012115310509F112
:101DE000D901F3CF9D01DA013383228360817181B0
:101DF000860F971F8217930769F4EC0128813981B8
:101E0000260F371F2E5F3F4F318320838A819B81AE
:101E100093838283452B29F4F093EA02E093E9024D
:101E200042C01396FC93EE931297ED01499159919C
:101E30009E01240F351FE217F30771F48081918111
:101E4000840F951F029611969C938E9382819381A5
:101E500013969C938E931297E0E0F0E0D8011296CF
:101E60008D919C911397009719F0F8018C01F6CF92
:101E70008D919C9198012E5F3F4F820F931F20916F
:101E8000E7023091E8022817390769F4309729F4FE
:101E90001092EA021092E90202C013821282109399
:101EA000E8020093E702DF91CF911F910F9108950F
:101EB000A0E0B0E0EEE5FFE00C94330CEC010097FD
:101EC00021F4CB010E942B0EB8C0FC01E60FF71FD6
:101ED0009C0122503109E217F30708F4ACC0D90184
:101EE0000D911C91119706171707B0F005301105D9
:101EF00008F49FC0C80104978617970708F499C093
:101F000002501109061B170B019311936D937C93DB
:101F1000CF010E94C00E8DC05B01A01AB10A4C0116
:101F2000800E911EA091E902B091EA0240E050E0DB
:101F3000E12CF12C109709F44AC0A815B905D1F588
:101F40006D907C901197630182E0C80ED11CCA1479
:101F5000DB0480F1A3014A195B096A0182E0C80E23
:101F6000D11C1296BC9012971396AC91B5E0CB168B
:101F7000D10440F0B282A38351834083D9016D9391
:101F80007C930AC00E5F1F4FC301800F911FF901A0
:101F900091838083EB2DFA2FE114F10431F0D70106
:101FA0001396FC93EE93129744C0F093EA02E093E9
:101FB000E9023FC08D919C9111974817590708F489
:101FC000AC017D0112960D90BC91A02DB3CF8091F4
:101FD000E7029091E80288159905E1F44617570742
:101FE000C8F48091000190910101009741F48DB7F0
:101FF0009EB74091040150910501841B950BE81791
:10200000F907C8F4F093E802E093E702F90171835D
:1020100060830FC0CB010E942B0E7C01009759F00A
:10202000A801BE010E942710CE010E94C00EC70168
:1020300004C0CE0102C080E090E0CDB7DEB7EEE094
:102040000C944F0C81E090E0F8940C94D812FB01B2
:10205000DC0102C001900D9241505040D8F7089524
:10206000FB01DC0101900D920020E1F70895AEE044
:10207000B0E0EDE3F0E10C943D0C0D891E8986E0A3
:102080008C831A8309838FEF9FE79E838D83AE0134
:10209000475E5F4F6F89788DCE0101960E945A107E
:1020A0002F813885F801E20FF31F10822E96E4E0AD
:1020B0000C94590CACE0B0E0E0E6F0E10C942F0C8D
:1020C0007C016B018A01FC0117821682838181FFEA
:1020D000BDC1CE0101964C01F7019381F60193FD3C
:1020E000859193FF81916F01882309F4ABC18532FB
:1020F00039F493FD859193FF81916F01853229F425
:10210000B70190E00E944212E7CF512C312C20E021
:102110002032A0F48B3269F030F4803259F08332EF
:1021200069F420612CC08D3239F0803339F421609C
:1021300026C02260246023C0286021C027FD27C05C
:1021400030ED380F3A3078F426FF06C0FAE05F9E93
:10215000300D1124532E13C08AE0389E300D112407
:10216000332E20620CC08E3221F426FD6BC1206418
:1021700006C08C3611F4206802C0883641F4F6019E
:1021800093FD859193FF81916F018111C1CF982FAC
:102190009F7D9554933028F40C5F1F4FFFE3F98324
:1021A0000DC0833631F0833771F0833509F05BC0A1
:1021B00022C0F801808189830E5F1F4F442443941D
:1021C000512C540115C03801F2E06F0E711CF8015A
:1021D000A080B18026FF03C0652D70E002C06FEFC4
:1021E0007FEFC5012C870E9437122C0183012C85BB
:1021F0002F77222E17C03801F2E06F0E711CF80104
:10220000A080B18026FF03C0652D70E002C06FEF93
:102210007FEFC5012C870E942C122C012C85206891
:10222000222E830123FC1BC0832D90E04816590603
:10223000B0F4B70180E290E00E9442123A94F4CFE9
:10224000F50127FC859127FE81915F01B70190E0A0
:102250000E94421231103A94F1E04F1A5108411491
:10226000510471F7E5C0843611F0893639F5F8016B
:1022700027FF07C060817181828193810C5F1F4FAE
:1022800008C060817181072E000C880B990B0E5FCE
:102290001F4F2F76722E97FF09C0909580957095ED
:1022A00061957F4F8F4F9F4F2068722E2AE030E05C
:1022B000A4010E947A12A82EA81844C0853729F4D8
:1022C0002F7EB22E2AE030E025C0F22FF97FBF2EFC
:1022D0008F36C1F018F4883579F0B4C0803719F022
:1022E000883721F0AFC02F2F2061B22EB4FE0DC071
:1022F0008B2D8460B82E09C024FF0AC09F2F9660E2
:10230000B92E06C028E030E005C020E130E002C070
:1023100020E132E0F801B7FE07C06081718182815F
:1023200093810C5F1F4F06C06081718180E090E057
:102330000E5F1F4FA4010E947A12A82EA818FB2D31
:10234000FF777F2E76FE0BC0372D3E7FA51450F40D
:1023500074FE0AC072FC08C0372D3E7E05C0BA2C40
:10236000372D03C0BA2C01C0B52C34FF0DC0FE01BF
:10237000EA0DF11D8081803311F4397E09C032FFEE
:1023800006C0B394B39404C0832F867809F0B39445
:1023900033FD13C030FF06C05A2CB31418F4530C8D
:1023A0005B18B32CB31468F4B70180E290E03C876B
:1023B0000E944212B3943C85F5CFB31410F43B183D
:1023C00001C0312C34FF12C0B70180E390E03C879C
:1023D0000E9442123C8532FF17C031FD03C088E7DE
:1023E00090E002C088E590E0B7010CC0832F8678AA
:1023F00059F031FF02C08BE201C080E237FD8DE26F
:10240000B70190E00E944212A51438F4B70180E3AE
:1024100090E00E9442125A94F7CFAA94F401EA0D78
:10242000F11D8081B70190E00E944212A110F5CF0A
:10243000332009F451CEB70180E290E00E944212AD
:102440003A94F6CFF7018681978102C08FEF9FEF14
:102450002C96E2E10C944B0CFC010590615070400D
:102460000110D8F7809590958E0F9F1F0895FC015D
:102470006150704001900110D8F7809590958E0FB3
:102480009F1F08950F931F93CF93DF93FB01238129
:1024900021FD03C08FEF9FEF28C022FF16C04681A9
:1024A0005781248135814217530744F4A081B181BB
:1024B0009D012F5F3F4F318320838C93268137818D
:1024C0002F5F3F4F3783268310C0EB01092F182F52
:1024D0000084F185E02D0995892BE1F68E819F819D
:1024E00001969F838E83812F902FDF91CF911F9133
:1024F0000F910895FA01AA27283051F1203181F176
:10250000E8946F936E7F6E5F7F4F8F4F9F4FAF4FFB
:10251000B1E03ED0B4E03CD0670F781F891F9A1F0E
:10252000A11D680F791F8A1F911DA11D6A0F711DC2
:10253000811D911DA11D20D009F468943F912AE0CE
:10254000269F11243019305D3193DEF6CF010895B6
:10255000462F4770405D4193B3E00FD0C9F7F6CFE7
:10256000462F4F70405D4A3318F0495D31FD4052AF
:10257000419302D0A9F7EACFB4E0A6959795879545
:1025800077956795BA95C9F7009761057105089524
:102590009B01AC010A2E06945795479537952795D0
:1025A000BA95C9F7620F731F841F951FA01D089568
:1025B00010E0CFE6D0E004C0FE010E94250E219677
:0A25C000C037D107C9F7F894FFCF28
:1025CA000000EB02800000004000140054000000EC
:1025DA0000003601A300CE007D01FF00DD00F100FE
:1025EA00000000008E025E02BE023A029B004A020E
:1025FA003B02000000002503A300BE02BD02643AAC
:10260A0025692C783A25692C793A25692C7A3A2554
:08261A0069002C000D0A00000C
:00000001FF
