:100000000C945E000C9486000C9486000C94860080
:100010000C9486000C9486000C9486000C94860048
:100020000C9486000C9486000C9486000C94860038
:100030000C9486000C9486000C9486000C94860028
:100040000C94AE040C9486000C947C040C9456041E
:100050000C9486000C9486000C9486000C94860008
:100060000C94F8040C948600000000002400270083
:100070002A0000000008000201000003040700003D
:10008000000000000000010204081020408001026E
:1000900004081020010204081020000000002500C0
:1000A00028002B00040404040404040402020202D5
:1000B00002020303030303032606770911241FBE6C
:1000C000CFEFD8E0DEBFCDBF11E0A0E0B1E0ECEDB6
:1000D000F5E102C005900D92A434B107D9F722E0F2
:1000E000A4E4B1E001C01D92A13BB207E1F710E02A
:1000F000CDE5D0E004C02197FE010E94A909CC35CE
:10010000D107C9F70E94EB060C94E10A0C94000099
:10011000CF92DF92EF92FF920F931F93CF93DF93D3
:100120006C017A018B01C0E0D0E0CE15DF0589F0CB
:10013000D8016D918D01D601ED91FC910190F08176
:10014000E02DC6010995892B11F47E0102C021968C
:10015000ECCFC701DF91CF911F910F91FF90EF90EE
:10016000DF90CF900895FC01538D448D252F30E012
:10017000842F90E0821B930B541710F0CF960895B4
:1001800001970895FC01918D828D981761F0828D01
:10019000DF01A80FB11D5D968C91928D9F5F9F73BB
:1001A000928F90E008958FEF9FEF0895FC01918D5D
:1001B000828D981731F0828DE80FF11D858D90E0CA
:1001C00008958FEF9FEF0895FC01918D228D892F67
:1001D00090E0805C9F4F821B91098F73992708954F
:1001E00083EE91E00E94E40021E0892B09F420E0F5
:1001F000822F0895FC01848DDF01A80FB11DA35A41
:10020000BF4F2C91848D90E001968F739927848F36
:10021000A689B7892C93A089B1898C9180648C932D
:10022000938D848D981306C00288F389E02D808118
:100230008F7D80830895EF92FF920F931F93CF934A
:10024000DF93EC0181E0888F9B8D8C8D981305C026
:10025000E889F989808185FD24C0F62E0B8D10E098
:100260000F5F1F4F0F731127E02E8C8DE8120CC00B
:100270000FB607FCFACFE889F989808185FFF5CFB1
:10028000CE010E94FA00F1CF8B8DFE01E80FF11D27
:10029000E35AFF4FF0820B8FEA89FB8980818062ED
:1002A00007C0EE89FF896083E889F98980818064CD
:1002B000808381E090E0DF91CF911F910F91FF90BB
:1002C000EF900895CF93DF93EC01888D8823C9F0D8
:1002D000EA89FB89808185FD05C0A889B9898C914F
:1002E00086FD0FC00FB607FCF5CF808185FFF2CFEA
:1002F000A889B9898C9185FFEDCFCE010E94FA00C3
:10030000E7CFDF91CF91089580E090E0892B29F02D
:100310000E94F00081110C940000089590E0FC010F
:10032000EE58FF4F3491FC01EA57FF4F2491FC0136
:10033000EC55FF4FE491EE2309F43BC0332339F130
:10034000333091F038F43130A9F0323001F584B512
:100350008F7D12C0373091F03830A1F03430B9F4CD
:10036000809180008F7D03C0809180008F77809383
:1003700080000DC084B58F7784BD09C08091B00026
:100380008F7703C08091B0008F7D8093B000F0E044
:10039000EE0FFF1FE656FF4FA591B4918FB7F8946B
:1003A000EC91611103C020952E2301C02E2B2C93BC
:1003B0008FBF0895CF93DF9390E0FC01EA57FF4F82
:1003C0002491FC01EC55FF4F8491882361F190E06A
:1003D000880F991FFC01E859FF4FC591D491FC018A
:1003E000E656FF4FA591B491611109C09FB7F894EB
:1003F0008881209582238883EC912E230BC0623064
:1004000061F49FB7F8943881822F80958323888385
:10041000EC912E2B2C939FBF06C08FB7F894E881E8
:100420002E2B28838FBFDF91CF9108953FB7F8948B
:100430008091D6019091D701A091D801B091D901B6
:1004400026B5A89B05C02F3F19F00196A11DB11D2F
:100450003FBFBA2FA92F982F8827820F911DA11D6A
:10046000B11DBC01CD0142E0660F771F881F991FA7
:100470004A95D1F708958F929F92AF92BF92CF92F3
:10048000DF92EF92FF926B017C010E9416024B01FA
:100490005C01C114D104E104F104F1F00E941602E0
:1004A000DC01CB0188199909AA09BB09883E934050
:1004B000A105B10570F321E0C21AD108E108F108E5
:1004C00088EE880E83E0981EA11CB11CC114D104D3
:1004D000E104F10419F7DDCFFF90EF90DF90CF90AA
:1004E000BF90AF909F908F90089585ED8093BC0052
:1004F0008091BC0084FDFCCF1092DC0108954091F6
:100500008801262F30E0240F311D21323105DCF423
:100510002091DC012430C9F4FC0180E090E08617D2
:1005200058F4309188012191DC01AA59BE4FA30FE4
:10053000B11D2C930196F3CF80918801680F6093D1
:10054000880180E0089581E0089582E0089508958B
:1005500081E090E03091E0012091DF01321710F44A
:1005600080E090E091958195910908958091E00156
:100570009091DF01891730F48F5F8093E00180E074
:1005800090E008958FEF9FEF08958091DF0190E054
:100590002091E001821B91090895CF92DF92EF92A2
:1005A000FF920F931F93CF93DF937C01262F972FFA
:1005B0008A0180916501882391F0C62FD72F6E01A3
:1005C000C40ED51ECC15DD0571F06991D701ED91F2
:1005D000FC910190F081E02DC7010995F3CF642FC4
:1005E000822F0E947F02C801DF91CF911F910F914E
:1005F000FF90EF90DF90CF900895CF93DF931F92FD
:10060000CDB7DEB76983209165012223D1F0209117
:10061000DD01203240F021E030E0FC013383228311
:1006200080E090E015C08091DE01E82FF0E0EB5B08
:10063000FE4F998190838F5F8093DE018093DD016F
:1006400005C061E0CE0101960E947F0281E090E04A
:100650000F90DF91CF910895CF93FC01C48121E0E9
:1006600020936501C09344011092DE011092DD01D8
:100670008385682B80E892E00E94FD028091DD0175
:10068000813208F046C09091DC019111FCCF92E0DC
:100690009093DC0191E09093DB019FEF9093AD018B
:1006A0001092CF018093CE01A5E4B1E02EEA31E0B3
:1006B000F9019E2F921B981718F49D919193F9CFF1
:1006C0001092D0018091D001CC0FC82BC093D001E3
:1006D0008091DA01813061F41092DA018091D001C9
:1006E0008093BB008091BC0083FDF8CF85EC01C0F6
:1006F00085EE8093BC008091DC018230E1F3809133
:10070000AD018F3F31F08091AD01803211F08091C9
:10071000AD011092DE011092DD0110926501CF91C2
:1007200008950F931F93CF938C01C62F0E942C0323
:100730006C2F6460C8010E942C036C2F6B7FC80172
:100740000E942C0383EC90E00197F1F7CF911F9169
:100750000F910895FF920F931F93CF93DF931F92F2
:10076000CDB7DEB78C01F62E962F907F692F642BC4
:10077000C80149830E94910380E1F89EB0011124D1
:100780004981642BC8010F90DF91CF911F910F9188
:10079000FF900C949103CF93DF93CDB7DEB72897EA
:1007A0000FB6F894DEBF0FBECDBF98E0E6E0F1E0F3
:1007B000DE01119601900D929A95E1F790919402C5
:1007C000981710F48FEF890FFE013196E80FF11D95
:1007D000E80FF11D6081606840E08CE892E02896A7
:1007E0000FB6F894DEBF0FBECDBFDF91CF910C9452
:1007F000AA0341E00E94AA0381E090E008950895D1
:1008000080E090E008958F929F92AF92BF920F93F5
:100810001F93CF93DF93CDB7DEB7A1970FB6F894B0
:10082000DEBF0FBECDBF19A2423008F44AE08E01F0
:100830000F5D1F4F842E912CA12CB12CA50194018A
:100840000E948709E62FB901CA0101501109EA3057
:1008500014F4E05D01C0E95CD801EC93232B242B58
:10086000252B61F70115110571F0F80101900020A9
:10087000E9F73197AF01401B510BB8018CE892E0CA
:100880000E94880002C080E090E0A1960FB6F89424
:10089000DEBF0FBECDBFDF91CF911F910F91BF90F3
:1008A000AF909F908F9008950E94DC0A1F920F9244
:1008B0000FB60F9211242F933F934F935F936F9333
:1008C0007F938F939F93AF93BF93EF93FF9383EEA9
:1008D00091E00E94FA00FF91EF91BF91AF919F913B
:1008E0008F917F916F915F914F913F912F910F90D9
:1008F0000FBE0F901F9018951F920F920FB60F9278
:1009000011242F938F939F93EF93FF93E091F30123
:10091000F091F4018081E091F901F091FA0182FDFA
:1009200012C090818091FC018F5F8F732091FD0137
:10093000821751F0E091FC01F0E0ED51FE4F958FF0
:100940008093FC0101C08081FF91EF919F918F9175
:100950002F910F900FBE0F901F9018951F920F921E
:100960000FB60F9211242F933F938F939F93AF93C2
:10097000BF938091D2019091D301A091D401B09105
:10098000D5013091D10123E0230F2D3720F40196BA
:10099000A11DB11D05C026E8230F0296A11DB11DA2
:1009A0002093D1018093D2019093D301A093D401DD
:1009B000B093D5018091D6019091D701A091D80133
:1009C000B091D9010196A11DB11D8093D6019093DC
:1009D000D701A093D801B093D901BF91AF919F9156
:1009E0008F913F912F910F900FBE0F901F901895F0
:1009F0001F920F920FB60F9211242F933F934F9394
:100A00005F936F937F938F939F93AF93BF93EF9376
:100A1000FF938091B900887F803609F49CC068F507
:100A2000883209F45BC090F4803109F454C038F482
:100A3000882309F4F6C0883009F44DC0F6C0883127
:100A400009F44CC0803209F45DC0EFC0803409F471
:100A500068C048F4803309F455C0883309F0E5C014
:100A60008093AD01D8C0803509F44FC0883509F4B2
:100A70005DC0883409F0D9C0D6C0883909F4C7C030
:100A8000A8F4883709F467C038F4883609F463C0DD
:100A9000803709F460C0C9C0883809F4B8C080390B
:100AA00009F45FC0803809F0C0C05BC0803B09F426
:100AB00086C038F4803A09F466C0883A09F47FC0E9
:100AC000B4C0803C09F4A7C0883C09F4A4C0883BAA
:100AD00009F48AC0AAC08091D00110C09091CF01C2
:100AE0008091CE01981770F5E091CF0181E08E0FD3
:100AF0008093CF01F0E0E255FE4F80818093BB00F0
:100B000085EC86C08093AD018EC0E091CF0181E07D
:100B10008E0F8093CF018091BB00F0E0E255FE4F35
:100B200080839091CF018091CE016EC0E091CF0182
:100B300081E08E0F8093CF018091BB00F0E0E25501
:100B4000FE4F80838091DB0181116DC081E0809335
:100B5000DA0184EA61C083E08093DC011092AC0189
:100B6000CFCF8091AC01803208F051C0E091AC0150
:100B700081E08E0F8093AC018091BB00F0E0E457E0
:100B8000FE4F8083BDCF85EC8093BC001092DC01CA
:100B90008091AC01803230F4E091AC01F0E0E45798
:100BA000FE4F10826091AC0170E0E0918A01F091FB
:100BB0008B018CE891E009951092AC0136C084E07D
:100BC0008093DC011092890110928801E0918601E6
:100BD000F0918701099580918801811105C081E01C
:100BE0008093880110926601E091890181E08E0F67
:100BF00080938901F0E0EA59FE4F80818093BB0029
:100C00009091890180918801981708F479CF85E83F
:100C10008093BC000AC085EC8093BC001092DC017C
:100C200004C01092AD010E947502FF91EF91BF9137
:100C3000AF919F918F917F916F915F914F913F9174
:100C40002F910F900FBE0F901F9018951092E601F4
:100C50001092E50188EE93E0A0E0B0E08093E70118
:100C60009093E801A093E901B093EA0122E131E019
:100C70003093E4012093E30125EC30E03093F00160
:100C80002093EF0124EC30E03093F2012093F10146
:100C900020EC30E03093F4012093F30121EC30E0BC
:100CA0003093F6012093F50122EC30E03093F80107
:100CB0002093F70126EC30E03093FA012093F901FC
:100CC0001092FC011092FD011092FE011092FF01A2
:100CD0001092830210928202809384029093850284
:100CE000A0938602B093870284E291E09093810200
:100CF000809380021092990210929F021092A60295
:100D00001092A7021092A8021092A90281E080938B
:100D1000A5028093A2021092A30292E09093A402F3
:100D20008093980283E090E090939D0280939C02D0
:100D30000E94AF099093A1028093A002009759F0FE
:100D4000FC0110821182128281E090E090939B025C
:100D500080939A0208C010929D0210929C021092F9
:100D60009B0210929A0288E080939E0280919902E1
:100D7000882341F061E088E00E94DA0160E088E0C9
:100D80000E948E01ECEAF0E0E491F0E0EE0FFF1F2C
:100D9000E656FF4F859194919093AB028093AA02FF
:100DA000EEE8F0E0E491E093AC0210928F02109232
:100DB0008E0286E391E090938D0280938C0287E20D
:100DC0008093900280E18093950282E08093960266
:100DD000109297020895CF93DF93CDB7DEB729978E
:100DE0000FB6F894DEBF0FBECDBF789484B5826095
:100DF00084BD84B5816084BD85B5826085BD85B5BF
:100E0000816085BD80916E00816080936E0010923C
:100E100081008091810082608093810080918100B7
:100E20008160809381008091800081608093800048
:100E30008091B10084608093B1008091B0008160A6
:100E40008093B00080917A00846080937A008091D2
:100E50007A00826080937A0080917A00816080932A
:100E60007A0080917A00806880937A001092C100A5
:100E7000E091F301F091F40182E08083E091EF01D1
:100E8000F091F0011082E091F101F091F2018FEC0C
:100E900080831092FB01E091F701F091F80186E068
:100EA0008083E091F501F091F6018081806180837B
:100EB000E091F501F091F601808188608083E091F6
:100EC000F501F091F601808180688083E091F50161
:100ED000F091F60180818F7D808360E08EE00E943A
:100EE000DA0180919E0287FD08C061E00E94DA016C
:100EF00060E080919E020E948E0181E080939902C1
:100F00001092E0011092DF011092DE011092DD01DB
:100F10001092DC018093DB011092DA0161E082E142
:100F20000E948E0161E083E10E948E018091B900F0
:100F30008E7F8093B9008091B9008D7F8093B90036
:100F400088E48093B80085E48093BC0010929102FD
:100F500080919602823018F098E0909391028093ED
:100F6000940262E370E080E090E00E943B026091B6
:100F700097028CE892E00E942C0368EE73E080E018
:100F800090E00E943B0260E38CE892E00E949103B3
:100F90000BE416E4C8010197F1F760E38CE892E0F6
:100FA0000E949103C8010197F1F760E38CE892E099
:100FB0000E94910383E592E00197F1F760E28CE8EB
:100FC00092E00E94910360919102606240E08CE89F
:100FD00092E00E94AA0384E08093920240E06CE0D9
:100FE0008CE892E00E94AA0340E061E08CE892E085
:100FF0000E94AA030BE31FE1C8010197F1F782E009
:101000008093930240E066E08CE892E00E94AA039D
:1010100040E062E08CE892E00E94AA03C8010197D8
:10102000F1F788E08093970260E08CE892E00E94FC
:101030002C0300E010E09801F12CE12CD02E032FBE
:10104000112722273327B02E50E4A52E68E0C62EA4
:10105000A0927C0080917A00806480937A008091D5
:101060007A0086FDFCCF809178002091790090E095
:10107000922B97FD039695958795959587959093D7
:10108000E2018093E10180919A0290919B02892B69
:10109000E9F120919F02222369F0F29EC001112400
:1010A000792FE29EC0011124692FD29EC001112424
:1010B000392F02C03D2DB7014091A5025091A202E7
:1010C0008091A0029091A102451771F0FC01E40FFC
:1010D000F11D222339F0209FA001219F500D1124E2
:1010E000252F01C02B2D20832091A202FC01E20FAD
:1010F000F11D70832091A302FC01E20FF11D6083BA
:101100002091A402FC01E20FF11D30838091A00226
:101110009091A102892B09F4A0C00E941602409070
:10112000A6025090A7026090A8027090A902DC016C
:10113000CB0184199509A609B7098C329140A10504
:10114000B10558F3F89480919C0290919D029A8386
:101150008983E091A002F091A102DF0111968081C4
:10116000898790919802E091AA02F091AB02809158
:10117000AC02992309F42DC09081982B9887908117
:10118000809589238F838F818C83CB8258856F8153
:1011900049853B812C8189819A81508347FD252F88
:1011A0003A952083262F39F0441F00C00000608349
:1011B000000000C0F2CF38E04D916083000001973D
:1011C00061F7F093AB02E093AA0249873B832C833B
:1011D00037C09081982B98879081809589238F8341
:1011E0008F818E83CD8258856F8149853D812E8187
:1011F00089819A81508347FD252F00C000C020833C
:1012000000C000C000C000C000C060830000262FE6
:101210003A9541F0441F000000C000C000C000C06B
:1012200000C0E8CF38E04D9100C0608300C0019756
:1012300009F7F093AB02E093AA0249873D832E831E
:101240009A83898378940E9416026093A602709311
:10125000A7028093A8029093A90280E00E94CB038A
:101260004090E1015090E201052C000C66087708DF
:1012700077FE14C0E0918C02F0918D020190F08114
:10128000E02D6DE28CE892E0099566277727CB0187
:1012900064197509860997094AE003C04AE0C30149
:1012A000B2010E94030483EE91E00E94E400892BC6
:1012B000D9F083EE91E00E94C200782E81E00E9476
:1012C000CB0344E050E06EE371E08CE892E00E94D2
:1012D0008800E0918C02F0918D020190F081E02D68
:1012E000672D8CE892E009950E948401B1CE80912F
:1012F000A0029091A102009711F00E94440A8091EF
:101300009E0287FD03C060E00C94DA010895A1E21B
:101310001A2EAA1BBB1BFD010DC0AA1FBB1FEE1F6F
:10132000FF1FA217B307E407F50720F0A21BB30BBA
:10133000E40BF50B661F771F881F991F1A9469F736
:1013400060957095809590959B01AC01BD01CF0192
:101350000895EE0FFF1F0590F491E02D0994CF93AF
:10136000DF938230910510F482E090E0E091AF02CB
:10137000F091B00220E030E0C0E0D0E0309711F111
:101380004081518148175907C0F04817590761F447
:1013900082819381209719F09B838A832BC090933D
:1013A000B0028093AF0226C02115310519F0421713
:1013B000530718F49A01BE01DF01EF010280F381A7
:1013C000E02DDCCF2115310509F1281B390B243024
:1013D000310590F412968D919C91139761157105CA
:1013E00021F0FB019383828304C09093B002809329
:1013F000AF02FD01329644C0FD01E20FF31F81935D
:101400009193225031092D933C933AC02091AD0223
:101410003091AE02232B41F420910201309103015F
:101420003093AE022093AD02209100013091010172
:101430002115310541F42DB73EB74091040150917B
:101440000501241B350BE091AD02F091AE02E217CD
:10145000F307A0F42E1B3F0B2817390778F0AC01D7
:101460004E5F5F4F2417350748F04E0F5F1F5093B4
:10147000AE024093AD028193919302C0E0E0F0E0B0
:10148000CF01DF91CF9108950F931F93CF93DF93F7
:10149000009709F48CC0FC013297138212820091EC
:1014A000AF021091B0020115110581F42081318144
:1014B000820F931F2091AD023091AE022817390799
:1014C00079F5F093AE02E093AD0271C0D80140E02F
:1014D00050E0AE17BF0750F412962D913C91139730
:1014E000AD012115310509F1D901F3CF9D01DA01D3
:1014F0003383228360817181860F971F8217930740
:1015000069F4EC0128813981260F371F2E5F3F4F88
:10151000318320838A819B8193838283452B29F4A5
:10152000F093B002E093AF0242C01396FC93EE93A7
:101530001297ED01499159919E01240F351FE21731
:10154000F30771F480819181840F951F02961196A3
:101550009C938E938281938113969C938E93129782
:10156000E0E0F0E0D80112968D919C9113970097DE
:1015700019F0F8018C01F6CF8D919C9198012E5FA6
:101580003F4F820F931F2091AD023091AE0228177A
:10159000390769F4309729F41092B0021092AF0223
:1015A00002C0138212821093AE020093AD02DF914B
:1015B000CF911F910F91089581E090E0F8940C94E1
:1015C000E10A10E0CDE5D0E004C0FE010E94A909C7
:0C15D0002196CE35D107C9F7F894FFCF63
:1015DC000000B10280000000400014005400000024
:1015EC0000001B018800B3006201E400C200D600B9
:1015FC0000000000FD02CD020004A702C502B602E5
:10160C00A80200000000F90388000004FF03434116
:04161C00523D00003B
:00000001FF
